{
  "contractName": "lottery",
  "abi": [
    {
      "inputs": [],
      "stateMutability": "nonpayable",
      "type": "constructor"
    },
    {
      "anonymous": false,
      "inputs": [
        {
          "indexed": false,
          "internalType": "address",
          "name": "_winner",
          "type": "address"
        },
        {
          "indexed": false,
          "internalType": "uint256",
          "name": "value",
          "type": "uint256"
        },
        {
          "indexed": false,
          "internalType": "uint256",
          "name": "winningNr",
          "type": "uint256"
        },
        {
          "indexed": false,
          "internalType": "uint256",
          "name": "nrParticipants",
          "type": "uint256"
        }
      ],
      "name": "Winner",
      "type": "event"
    },
    {
      "inputs": [],
      "name": "admin",
      "outputs": [
        {
          "internalType": "address",
          "name": "",
          "type": "address"
        }
      ],
      "stateMutability": "view",
      "type": "function",
      "constant": true
    },
    {
      "inputs": [
        {
          "internalType": "uint256",
          "name": "",
          "type": "uint256"
        }
      ],
      "name": "participants",
      "outputs": [
        {
          "internalType": "address payable",
          "name": "",
          "type": "address"
        }
      ],
      "stateMutability": "view",
      "type": "function",
      "constant": true
    },
    {
      "stateMutability": "payable",
      "type": "receive",
      "payable": true
    },
    {
      "inputs": [],
      "name": "getBalance",
      "outputs": [
        {
          "internalType": "uint256",
          "name": "",
          "type": "uint256"
        }
      ],
      "stateMutability": "view",
      "type": "function",
      "constant": true
    },
    {
      "inputs": [],
      "name": "random",
      "outputs": [
        {
          "internalType": "uint256",
          "name": "",
          "type": "uint256"
        }
      ],
      "stateMutability": "view",
      "type": "function",
      "constant": true
    },
    {
      "inputs": [],
      "name": "winner",
      "outputs": [],
      "stateMutability": "nonpayable",
      "type": "function"
    }
  ],
  "bytecode": "0x608060405234801561001057600080fd5b50336000806101000a81548173ffffffffffffffffffffffffffffffffffffffff021916908373ffffffffffffffffffffffffffffffffffffffff160217905550610749806100606000396000f3fe60806040526004361061004e5760003560e01c806312065fe0146100cf57806335c1d349146100fa5780635ec01e4d14610137578063dfbf53ae14610162578063f851a44014610179576100ca565b366100ca57662386f26fc10000341461006657600080fd5b6001339080600181540180825580915050600190039060005260206000200160009091909190916101000a81548173ffffffffffffffffffffffffffffffffffffffff021916908373ffffffffffffffffffffffffffffffffffffffff1602179055005b600080fd5b3480156100db57600080fd5b506100e46101a4565b6040516100f19190610471565b60405180910390f35b34801561010657600080fd5b50610121600480360381019061011c91906104bd565b610205565b60405161012e919061052b565b60405180910390f35b34801561014357600080fd5b5061014c610244565b6040516101599190610471565b60405180910390f35b34801561016e57600080fd5b5061017761027e565b005b34801561018557600080fd5b5061018e6103f6565b60405161019b9190610567565b60405180910390f35b60008060009054906101000a900473ffffffffffffffffffffffffffffffffffffffff1673ffffffffffffffffffffffffffffffffffffffff163373ffffffffffffffffffffffffffffffffffffffff16146101ff57600080fd5b47905090565b6001818154811061021557600080fd5b906000526020600020016000915054906101000a900473ffffffffffffffffffffffffffffffffffffffff1681565b60004442600180549050604051602001610260939291906105a3565b6040516020818303038152906040528051906020012060001c905090565b60008054906101000a900473ffffffffffffffffffffffffffffffffffffffff1673ffffffffffffffffffffffffffffffffffffffff163373ffffffffffffffffffffffffffffffffffffffff16146102d657600080fd5b600360018054905010156102e957600080fd5b6000806102f4610244565b9050600060018054905082610309919061060f565b90506001818154811061031f5761031e610640565b5b9060005260206000200160009054906101000a900473ffffffffffffffffffffffffffffffffffffffff1692507f9164b2becbb10ef9dda7ed64a0ffb5c5efb14ce66936fc71f0eaf777c5d5aaea836103766101a4565b8360018054905060405161038d94939291906106ce565b60405180910390a18273ffffffffffffffffffffffffffffffffffffffff166108fc6103b76101a4565b9081150290604051600060405180830381858888f193505050501580156103e2573d6000803e3d6000fd5b50600160006103f1919061041a565b505050565b60008054906101000a900473ffffffffffffffffffffffffffffffffffffffff1681565b5080546000825590600052602060002090810190610438919061043b565b50565b5b8082111561045457600081600090555060010161043c565b5090565b6000819050919050565b61046b81610458565b82525050565b60006020820190506104866000830184610462565b92915050565b600080fd5b61049a81610458565b81146104a557600080fd5b50565b6000813590506104b781610491565b92915050565b6000602082840312156104d3576104d261048c565b5b60006104e1848285016104a8565b91505092915050565b600073ffffffffffffffffffffffffffffffffffffffff82169050919050565b6000610515826104ea565b9050919050565b6105258161050a565b82525050565b6000602082019050610540600083018461051c565b92915050565b6000610551826104ea565b9050919050565b61056181610546565b82525050565b600060208201905061057c6000830184610558565b92915050565b6000819050919050565b61059d61059882610458565b610582565b82525050565b60006105af828661058c565b6020820191506105bf828561058c565b6020820191506105cf828461058c565b602082019150819050949350505050565b7f4e487b7100000000000000000000000000000000000000000000000000000000600052601260045260246000fd5b600061061a82610458565b915061062583610458565b925082610635576106346105e0565b5b828206905092915050565b7f4e487b7100000000000000000000000000000000000000000000000000000000600052603260045260246000fd5b6000819050919050565b600061069461068f61068a846104ea565b61066f565b6104ea565b9050919050565b60006106a682610679565b9050919050565b60006106b88261069b565b9050919050565b6106c8816106ad565b82525050565b60006080820190506106e360008301876106bf565b6106f06020830186610462565b6106fd6040830185610462565b61070a6060830184610462565b9594505050505056fea2646970667358221220fc1a49d78a9475e66ad2998c011b78740bc07e65a9859c0eebc2383f50de44d864736f6c63430008130033",
  "immutableReferences": {},
  "source": "// SPDX-License-Identifier: GPL-3.0\n\npragma solidity <0.9.0;\n\ncontract lottery{\n\n    address public admin;\n    address payable[] public participants;\n\n    constructor(){\n        admin=msg.sender;\n    }\n\n    modifier isManager(){\n        require(msg.sender == admin);\n        _;\n    }\n    modifier enoughParticipants(){\n        require(participants.length>=3);\n        _;\n    }\n\n    event Winner(address _winner, uint value, uint winningNr, uint nrParticipants);\n\n    receive() external payable{\n        require(msg.value==0.01 ether);\n        participants.push(payable(msg.sender));\n    }\n\n    function getBalance() public view isManager() returns(uint){\n        return address(this).balance;\n    }\n\n    function random() public view returns(uint){\n        return uint(keccak256(abi.encodePacked(block.prevrandao, block.timestamp, participants.length)));\n    }\n\n    function winner() public isManager() enoughParticipants(){\n        address payable _winner;\n        uint r = random();\n        uint index = r % participants.length;\n        _winner = participants[index];\n        emit Winner(_winner, getBalance(), index, participants.length);\n        _winner.transfer(getBalance());\n        delete participants;\n    }\n}",
  "sourcePath": "/Users/yannick/Library/CloudStorage/OneDrive-Personlich/Zertifikate_onlinekurse/blockhcain-council/CSCD/Lottery/contracts/Lottery.sol",
  "compiler": {
    "name": "solc",
    "version": "0.8.19+commit.7dd6d404.Emscripten.clang"
  },
  "schemaVersion": "3.4.13",
  "updatedAt": "2023-05-13T20:01:24.804Z",
  "networkType": "ethereum",
  "devdoc": {
    "kind": "dev",
    "methods": {},
    "version": 1
  },
  "userdoc": {
    "kind": "user",
    "methods": {},
    "version": 1
  }
}